:040000008A110F282A
:10000800FE00030E83160313C0000A08C1007F0810
:10001800C2008A15DE2C8A111128831603138A154B
:1000280077218A11DF008A1578218A11E0008A1564
:1000380079218A11E1008A157A218A11E2008A154C
:100048007B218A11E3008A157C218A11E40083133D
:10005800C9308400DF308A1599218A11831203136D
:10006800EF0183018A15B32983120313230880390A
:10007800A8002308F9007907AE00A21F44284528E4
:1000880046282E142E0803194A284B285A282E0AC7
:10009800031D4F28502858280030A3000030A20024
:1000A8000030A1000030A000A21762280030A30091
:1000B8000030A2000030A1000030A00027088039DD
:1000C800FF007F08A8062708F9007907AD00A61FDA
:1000D8006E286F2870282D142D0803197428752888
:1000E80084282D0A031D79287A2882280030A70041
:1000F8000030A6000030A5000030A400A6178C2808
:100108000030A7000030A6000030A5000030A40091
:100118002D0803199028912896282E08031D952844
:1001280096289F280030A3000030A2000030A100CC
:100138000030A0006A2B2008F00026088A15F52256
:100148008A11710883120313B4007008B3003308CE
:10015800F900FA01FB01FC017C08AC007B08AB004C
:100168007A08AA007908A9003408F900FA01FB0105
:10017800FC017C08B2007B08B1007A08B00079085D
:10018800AF002108F00025088A15F5228A117108A8
:1001980083120313B4007008B3003308F900FA019E
:1001A800FB01FC017908A9077A0803110318013E2D
:1001B8000319DF28AA077B0803110318013E031956
:1001C800E628AB077C0803110318013E0319ED2844
:1001D800AC073408F900FA01FB01FC017908AF0704
:1001E8007A0803110318013E0319FB28B0077B089E
:1001F80003110318013E03190229B1077C080311F2
:100208000318013E03190929B2072208F00024083F
:100218008A15F5228A11710883120313B400700835
:10022800B3003308F900FA01FB01FC017908A907BA
:100238007A0803110318013E03192329AA077B082A
:1002480003110318013E03192A29AB077C0803117F
:100258000318013E03193129AC073408F900FA01E3
:10026800FB01FC017908AF077A0803110318013E66
:1002780003193F29B0077B0803110318013E03192E
:100288004629B1077C0803110318013E03194D29BB
:10029800B2070830F9000310A90DAA0DAB0DAC0D7B
:1002A800F90B4F292108F00024088A15F5228A1134
:1002B800710883120313B4007008B3003308F900FF
:1002C8003408FA00FB01FC017908A9077A08031130
:1002D8000318013E03197129AA077B0803110318A3
:1002E800013E03197829AB077C0803110318013E66
:1002F80003197F29AC072008F00025088A15F52284
:100308008A11710883120313B4007008B30033080C
:10031800F9003408FA00FB01FC017908A9077A08FA
:1003280003110318013E03199A29AA077B08031130
:100338000318013E0319A129AB077C080311031810
:10034800013E0319A829AC070830F9000310A90DCC
:10035800AA0DAB0DAC0DF90BAA292008F000240852
:100368008A15F5228A11710883120313B4007008E4
:10037800B3003308F9003408FA00FB01FC017908DE
:10038800A9077A0803110318013E0319CC29AA0703
:100398007B0803110318013E0319D329AB077C0816
:1003A80003110318013E0319DA29AC072108F000EC
:1003B80026088A15F5228A11710883120313B400DE
:1003C8007008B3003308F9003408FA00FB01FC0197
:1003D8007908AF077A0803110318013E0319F529B4
:1003E800B0077B0803110318013E0319FC29B10764
:1003F8007C0803110318013E0319032AB2072208D7
:10040800F00025088A15F5228A1171088312031352
:10041800B4007008B3003308F9003408FA00FB018F
:10042800FC017908AF077A0803110318013E031984
:100438001E2AB0077B0803110318013E0319252A59
:10044800B1077C0803110318013E03192C2AB207CF
:100458002208F00026088A15F5228A1171088312ED
:100468000313B4007008B3003308F9003408FA0025
:10047800FB01FC0108300310F90DFA0DFB0DFC0D12
:10048800FF3E031D3F2A7908AF077A0803110318B6
:10049800013E0319502AB0077B0803110318013ED7
:1004A8000319572AB1077C0803110318013E0319E1
:1004B8005E2AB2072908F9002A08FA002B08FB006F
:1004C8002C08FC0018300310FC0CFB0CFA0CF90C7F
:1004D800FF3E031D672A7908AF077A08031103183E
:1004E800013E0319782AB0077B0803110318013E5F
:1004F80003197F2AB1077C0803110318013E031969
:10050800862AB2070830F9000310A90DAA0DAB0D11
:10051800AC0DF90B882A2E082D07F900FA01FA0DFF
:100528007908823EB3007A080318013EFF3EB40002
:10053800BA2A0130F9000310AF0DB00DB10DB20D9C
:10054800F90B9F2AAC1FA92AAA2AAB2A2F1401301B
:10055800F9000310A90DAA0DAB0DAC0DF90BAD2ACE
:10056800FF30B3070318B40AFF30B407B11FBD2A20
:10057800BE2A9D2AAD01AC1FC22AC32ADF2AFF303A
:100588002905F900FF302A05FA00FF302B05FB008A
:100598007F302C05FC007C087B047A04790403195D
:1005A800D62AD72ADA2AAD01AD0ADF2A2F1CDD2A7E
:1005B800DE2ADF2AD72A2D080319E32AE42A152B75
:1005C8000130AF07003003180130B00700300318BE
:1005D8000130B107003003180130B207321CF52A88
:1005E800F62A152B2F08F9003008FA003108FB000D
:1005F8003208FC000130FD007C0DFC0CFB0CFA0CF1
:10060800F90CFD0B002B7C08B2007B08B1007A08BE
:10061800B0007908AF000130B3070318B40A0030FE
:10062800B4073408803AFF0080307F02031D1E2B78
:10063800FF303302031C212B222B2D2B7F308312FA
:100648000313B2008030B1000030B0000030AF00BA
:100658005E2B831203133408803AFF0080307F0238
:10066800031D382B0130330203183B2B3C2B482B3E
:10067800003083120313B2000030B1000030B00024
:100688000030AF00A8015E2B831203133308AE00BD
:10069800FF30AF05FF30B0057F30B1050030B2053F
:1006A8002E1C572B582B592BB1172E08F900031065
:1006B800790CB2002808FF007F08B2043208A300B2
:1006C8003108A2003008A1002F08A00008008312FA
:1006D800031352088039DF005208D7005707E1009A
:1006E800D11F772B782B792B6114610803197D2B87
:1006F8007E2B8E2B610A031D822B832B8B2B0030C4
:10070800D2000030D1000030D0000030CF00D11727
:10071800D201962B0030D2000030D1000030D0003A
:100728000030CF0056088039E00060085F060319E2
:100738009E2B9F2BA02B5F175608D7005707E0006A
:10074800D51FA72BA82BA92B601460080319AD2B64
:10075800AE2BBE2B600A031DB22BB32BBB2B003074
:10076800D6000030D5000030D4000030D300D517B3
:10077800D601C62B0030D6000030D5000030D4009A
:100788000030D300610860020318CB2BCC2BF22B6E
:100798005F1FCF2BD02BD42B8030FF007F08DF06C4
:1007A8006108E2006008E1006208E0004F08E2002A
:1007B8005308CF006208D3005008E2005408D00064
:1007C8006208D4005108E2005508D1006208D5003B
:1007D8005208E2005608D2006208D600E20160081A
:1007E800D700D8015808DA0061085702D900031C5D
:1007F800DA035A08803AFF0080307F02031D062C76
:100808001A305902031C092C0A2C412C8312031399
:100818005208510450044F04031D132C152C0130A9
:10082800162C0030E2000030D2000030D100003039
:10083800D0000030CF006008E100492C621C252C54
:10084800262C2D2C6208D7000310570C0138E20023
:100858002F2C0310E20C4F1C322C332C342CE217B3
:100868000130D700520DD20CD10CD00CCF0CD70BC5
:10087800362C0130FF007F08E1078312031360085C
:100888006102031C482C492C222C5F1B4C2C4D2C3C
:10089800962C6108031D512C522C5B2C0030D20081
:1008A8000030D1000030D0000030CF00C22D5308F6
:1008B800CF07540803110318013E0319642CD0070D
:1008C800550803110318013E03196B2CD10756086C
:1008D80003110318013E0319722CD207521C752C00
:1008E800762C4A2D621C792C7A2C812C6208D70030
:1008F8000310570C0138E200832C0310E20C4F1C44
:10090800862C872C882CE2170130D700520DD20C88
:10091800D10CD00CCF0CD70B8A2C0130FF007F08EC
:10092800E1074A2D5208803AFF005608803A7F02B4
:10093800031DA82C55085102031DA82C5408500269
:10094800031DA82C53084F020318AB2CAC2C042D04
:10095800FF30D700FF30D800FF30D900FF30DA0071
:100968005308DB005408DC005508DD005608DE009B
:100978004F08DB025008031C500FC32CC42CDC02A8
:100988005108031C510FC92CCA2CDD025208031C44
:10099800520FCF2CD02CDE025B08D7075C08031857
:1009A8005C0FD72CD82CD8075D0803185D0FDD2CF9
:1009B800DE2CD9075E0803185E0ADA075A08D20047
:1009C8005908D1005808D0005708CF008030FF00E0
:1009D8007F08DF06E209E20A6208031DF42CF52C01
:1009E800122D0130CF07003003180130D007003036
:1009F80003180130D107003003180130D207122D37
:100A08005308CF025408031C540FD0025508031C86
:100A1800550FD1025608031C560FD2025208510432
:100A280050044F04031D192D1A2D462D6208031D6D
:100A38001E2D1F2D462D0030D2000030D100003071
:100A4800D0000030CF00C22D0130D7000310CF0DE9
:100A5800D00DD10DD20DD70B2A2DE21F342D352DF7
:100A6800362D4F14621C392D3A2D3D2D0314E20DFD
:100A78003F2D0310E20D61080319432D442D462D27
:100A88000130E102D11F492D4A2D282DE001E21F36
:100A98004E2D4F2D5D2D62087F390319542D552D8C
:100AA800582DE001E00A5D2D4F1C5B2D5C2D5D2D5E
:100AB800552D60080319612D622D962D0130CF0741
:100AC800003003180130D007003003180130D10777
:100AD800003003180130D207521C732D742D962D47
:100AE8004F08D7005008D8005108D9005208DA003A
:100AF8000130DB005A0DDA0CD90CD80CD70CDB0B03
:100B08007E2D5A08D2005908D1005808D00057083D
:100B1800CF00610A0319912D922D962D0130FF0007
:100B28007F08E107610A03199A2D9B2DA02D610802
:100B3800031D9F2DA02DAE2D0030D2000030D10016
:100B48000030D0000030CF006108031DAC2DAD2D62
:100B5800AE2DDF01611CB12DB22DB42DD117B82DEA
:100B68007F30FF007F08D1056108D7000310570CBC
:100B7800D200DF1FC02DC12DC22DD217080083124D
:100B880003133C088039C6003C08BD003D07CD0072
:100B9800BB1FCF2DD02DD12D4D144D080319D52DA8
:100BA800D62DE62D4D0A031DDA2DDB2DE32D003061
:100BB800BC000030BB000030BA000030B900BB17E1
:100BC800BC01EE2D0030BC000030BB000030BA0084
:100BD8000030B90038088039FF007F08C606380899
:100BE800BD003D07CE00B71FFA2DFB2DFC2D4E147E
:100BF8004E080319002E012E112E4E0A031D052E34
:100C0800062E0E2E0030B8000030B7000030B600B7
:100C18000030B500B717B801192E0030B800003001
:100C2800B7000030B6000030B50038083704360485
:100C38003504031D202E212E3A2E0030BC00003032
:100C4800BB000030BA000030B9008030BB047F30F0
:100C5800BC044608FF007F08BC043C08B8003B08F9
:100C6800B7003A08B6003908B500912F4D08031DA2
:100C78003E2E3F2E482E0030B8000030B70000301E
:100C8800B6000030B500912F4D08BD00BE013E08EA
:100C9800C0004E083D02BF00031CC0033F087F3E52
:100CA800C70040080318013E003EC8003C08C500C4
:100CB8003B08C4003A08C3003908C2000030BC0031
:100CC8000030BB000030BA000030B9000030CC0062
:100CD8000030CB000030CA000030C900CE01BE2E63
:100CE8004E080319782E792E992E0130BD00031075
:100CF800C20DC30DC40DC50DBD0B7B2E0130BD004B
:100D08000310B90DBA0DBB0DBC0DBD0B842ECC1F45
:100D18008E2E8F2E902E39140130BD000310C90D70
:100D2800CA0DCB0DCC0DBD0B922E38084502031D04
:100D3800A72E37084402031DA72E36084302031DB9
:100D4800A72E35084202031CAA2EAB2EBA2E4C172A
:100D58003508C2023608031C360FC3023708031CC5
:100D6800370FC4023808031C380FC5020130FF00D2
:100D78007F08CE071A304E02031CC32EC42E742ED1
:100D880045084404430442040319CB2ECC2EEB2E11
:100D98004914EB2E0130BD000310B90DBA0DBB0D7F
:100DA800BC0DBD0BD02ECC1FDA2EDB2EDC2E391459
:100DB8000130BD000310C90DCA0DCB0DCC0DBD0B04
:100DC800DE2EFF30C7070318C80AFF30C807BB1F4D
:100DD800EE2EEF2ECE2ECE01CC1FF32EF42E102F9A
:100DE800FF304905BD00FF304A05BE00FF304B0506
:100DF800BF007F304C05C00040083F043E043D045E
:100E08000319072F082F0B2FCE01CE0A102F391CDC
:100E18000E2F0F2F102F082F4E080319142F152FE0
:100E2800462F0130B907003003180130BA070030E7
:100E380003180130BB07003003180130BC073C1C05
:100E4800262F272F462F3908BD003A08BE003B0839
:100E5800BF003C08C0000130C100400DC00CBF0CF1
:100E6800BE0CBD0CC10B312F4008BC003F08BB00B5
:100E78003E08BA003D08B9000130C7070318C80A80
:100E88000030C8074808803AFF0080307F02031D01
:100E98004F2FFF304702031C522F532F612FFF3073
:100EA80083120313C7000030C8000030BC000030B4
:100EB800BB000030BA000030B900831203134808A1
:100EC800803AFF0080307F02031D6C2F01304702FB
:100ED80003186F2F702F7D2F83120313C701C801CA
:100EE8000030BC000030BB000030BA000030B90050
:100EF800C601831203134708CD004D1C842F852F8C
:100F0800872FBB178B2F7F30FF007F08BB054D084D
:100F1800BD0003103D0CBC002D2E0800FB01F71F7F
:100F2800962F972F9E2FF609F709F60A0319F70A45
:100F3800FB01FB0AF91FA12FA22FAB2FF809F90912
:100F4800F80A0319F90A0130FF007F08FB06FC01C3
:100F5800FD01760877040319B22FB32FEA2FFA019F
:100F6800FA0AC12F01300310F60DF70DFF3E031DDD
:100F7800B72F0130FF007F08FA07F71FC42FC52FCE
:100F8800B62F01300310FC0DFD0DFF3E031DC62FCB
:100F980077087902031DD22F76087802031CD52F13
:100FA800D62FDD2F7608F8027708031CF903F9021B
:100FB8007C1401300310F70CF60CFF3E031DDE2FE6
:100FC8000130FA02031DE92FEA2FC52F7B08031908
:100FD800EE2FEF2FF42FFC09FD09FC0A0319FD0A77
:100FE8007D08F7007C08F60008008A15A1218A11FF
:100FF8008A15AA218A11080008308A000408840A80
:0C1008008207003442346034E5343B348D
:1012B2008A1584218A1508008A156D218A1508006D
:1012C200831203139F1408008A1572218A150800DD
:1012D200831203139F14080083160313DD01DE013A
:1012E200080083160313DD01DE0108000134003417
:1012F2002D3400342D340034831603130C1783125B
:1013020003130C130800013083160313DD000030B1
:10131200DE000800831203171E138316031307153A
:101322000800831203179F10831603138713080004
:1013320064008001840A04060319003404069A2911
:10134200831203179E1083160313851095109610AF
:101352000800831203171E118316031305111511BA
:10136200161108008A1510228A158A15C6218A15B7
:10137200B9298A110F28831203179F1583160313A5
:10138200861683120317961608008A15BC218A1541
:101392008A1537228A158A1569218A15080083124F
:1013A2000313070CF200720C0139F300F401730805
:1013B200F0007408F1000800831203130C108F016F
:1013C2008E010C10831603138C140C148312031356
:1013D2009010CF30900508008A15D0218A15700828
:1013E20071040319F529F629FA298A155D218A154E
:1013F200FD298A1559218A15080083160313390815
:10140200B5003808B4008A154A248A1583160313D6
:1014120055085604031D0E2A0F2A072A08008B17A7
:101422000B178A15DD218A158A1592218A158A15CC
:101432008B218A158A1565218A158A11F9278A1541
:101442000800F401831203131F1C282A292A2F2AB9
:101452000C1F2C2A2D2A2F2AF401F40A7408F200F8
:10146200F3017208F0007308F100080083160313F9
:101472000C17831203130C130B171F141F139F1740
:101482001F08C3392C389F00831603131F088F3996
:1014920050389F0008008316031363086404031D79
:1014A200532A542A552A6A2A8A154D258A158316E3
:1014B200031364086202031D602A630861020318B1
:1014C200632A642A6A2A0130E3020030031CE4031F
:1014D200E402080070037104031D702A712A7A2A3B
:1014E200831203130C10101083160313D701D801B3
:1014F200892A023070067104031D802A812A892AF2
:10150200831203138C10121183160313D501D60113
:101512000800803083120313E6066A08D2006908C5
:10152200D1006808D0006708CF006608D6006508B9
:10153200D5006408D4006308D3008A116B238A158E
:10154200831203135208E6005108E5005008E40034
:101552004F08E30008008A1580238A1583120313BB
:101562003108BB003008BA002F08B9002E08B800B5
:101572000030BF000030BE000030BD000030BC00B3
:101582008A158E248A150030031801308312031342
:10159200C600C7014608C4004708C5000800F40198
:1015A200F501701CD52AD62ADC2A7208F407031822
:1015B200F50A7308F50701300310F20DF30DFF3E33
:1015C200031DDD2A01300310F10CF00CFF3E031D58
:1015D200E42A70087104031DEF2AF02AD22A750842
:1015E200F1007408F0000800F800F401F501700839
:1015F200F200F3017208F6007308F700781C022B60
:10160200032B092B7608F4070318F50A7708F50768
:1016120001300310F60DF70DFF3E031D0A2B0310D8
:10162200F80C7808031D162B172BFF2A7508F100FA
:101632007408F0000800831203130C1C212B222BC8
:101642002F2B83160313570858040319292B2A2B0F
:101652002F2B0130F0000030F100432B83128C1C41
:10166200332B342B412B83160313550856040319CD
:101672003B2B3C2B412B0230F0000030F100432B7E
:10168200F001F10108000230831603135D065E04C7
:10169200031D4C2B4D2B512B8312031387137F2BCE
:1016A2005D035E04031D562B572B6D2B5B085C04F8
:1016B200031D5C2B5D2B6D2B8312031387130130EB
:1016C20083160313DB000030DC000030B400B500E9
:1016D2008A15C2238A157F2B83120313871F722B4D
:1016E200732B752B8713762B8717143083160313EE
:1016F200B4000030B5008A15C2238A15080083128F
:1017020003131E08B700831603131E088312031364
:10171200B6000530F2000030F3003708F100360859
:10172200F0008A15D0228A157108F9007008F800B5
:101732000B30F6000030F7008A1192278A157608DE
:1017420083120313A0007708A1000030A11BFF3011
:10175200A200A30001308A155F268A1583120313A3
:101762002308B5002208B4002108B3002008B20003
:101772003508B1003408B0003308AF003208AE00BB
:101782000800013083160313D7000030D800340854
:1017920083120313A0008316031335088312031365
:1017A200A100A201A30100308A155F268A158312C7
:1017B2000313230883160313A900831203132208B9
:1017C20083160313A800831203132108831603133D
:1017D200A70083120313200883160313A6008A1599
:1017E20019278A15831603132708B7002608B6009F
:1017F2003708831203138F008316031336088312EC
:1018020003138E008B1710140800F401F501700801
:10181200710403190D2C0E2C452CF601F60A1C2C12
:1018220001300310F00DF10DFF3E031D122C0130AB
:10183200FF007F08F607F11F1F2C202C112C01300E
:101842000310F40DF50DFF3E031D212C71087302E8
:10185200031D2D2C70087202031C302C312C382CE5
:101862007008F2027108031CF303F30274140130CE
:101872000310F10CF00CFF3E031D392C0130F6026F
:10188200031D442C452C202C7508F1007408F0002F
:101892000800013083160313D5000030D6008312EE
:1018A20003131211FC3092058316031334088312BA
:1018B2000313A00083160313350883120313A10038
:1018C200A201A30100308A155F268A158312031331
:1018D200230883160313A900831203132208831615
:1018E2000313A80083120313210883160313A7000E
:1018F20083120313200883160313A6008A151927DF
:101902008A15831603132708B7002608B60036087F
:10191200831203139100121508000030831203137F
:101922003805C00000303905C10080303A05C200D8
:101932007F303B05C3004308420441044004031DB9
:10194200A32CA42CAC2C0030BB000030BA00003019
:10195200B9000030B80000303C05C00000303D0541
:10196200C10080303E05C2007F303F05C3004308FE
:10197200420441044004031DBF2CC02CC82C00307B
:10198200BF000030BE000030BD000030BC003F0888
:101992003B06031DD62C3E083A06031DD62C3D08F5
:1019A2003906031DD62C3C0838060319D92CDA2C2B
:1019B200DC2C0310DD2C031408008A151C238A1565
:1019C200710883160313C8007008C700C301C4015D
:1019D200C501C601470848040319F02CF12C0F2D4C
:1019E2004808F1004708F0008A156B228A15831611
:1019F200031347034804031DFF2C002D042D01305F
:101A0200C3000030C400023047064804031D0A2DFB
:101A12000B2D0F2D0130C5000030C6008A15222281
:101A22008A15700871040319172D182D422D8A1575
:101A32007D218A158A15AC228A1583120313440864
:101A420045040319252D262D3F2D8A15ED218A15D2
:101A520083160313430844040319302D312D342D0A
:101A62008A1544238A15831603134508460403196D
:101A72003B2D3C2D3F2D8A154C228A158A1561215A
:101A82008A15831603134208FF0041088A00400E9C
:101A92008300FE0E7E0E0900831603136408F30012
:101AA2006308F2003230F0000030F1008A1506249B
:101AB2008A15700883160313BA007108BB0003105D
:101AC200BB0CBA0C3A08BE003B08BF003F08F3004B
:101AD2003E08F2006430F0000030F1008A1506245E
:101AE2008A15700883160313BA007108BB00BC0183
:101AF200BD013D0883120313A300831603133C08A0
:101B020083120313A200831603133B0883120313E9
:101B1200A100831603133A0883120313A0000030B6
:101B22008A155F268A15831603135F08600403195A
:101B32009B2D9C2DAB2D0030B400B5008A154A2494
:101B42008A1583160313DF01E0010130D90000304A
:101B5200DA00C42D59085A040319B02DB12DBF2D36
:101B62008312031385140515143083160313B8006A
:101B72000030B9008A15FE218A15C42D8312031381
:101B820085100511A22D08000310831203136D0D99
:101B92006E0D83160313A5002508031DD12DD22D2A
:101BA200DD2D003083120313EE000030ED00003013
:101BB200EC000030EB005E2E831203136B088316D9
:101BC2000313A000831203136C0883160313A100EE
:101BD200831203136D0883160313A20083120313E7
:101BE2006E0883160313A3001F300310A30CA20C6C
:101BF200A10CA00CFF3E031DF62D2008A4008312A9
:101C02000313ED17FF30EB05FF30EC05FF30ED0558
:101C12000030EE05963083160313A502A51F122E7F
:101C2200132E312E2508803A973E0318192E1A2EAC
:101C32001B2ED22D0130031083120313EE0CED0C78
:101C4200EC0CEB0CFF3E031D1C2E0130FF007F0845
:101C520083160313A507031D2F2E302E1B2E4C2E89
:101C620020302502031C362E372E472ED22D01306E
:101C7200A000031083120313EB0DEC0DED0DEE0D1E
:101C820083160313A00B3A2E0130A5022508031D6B
:101C92004B2E4C2E382E24080319502E512E5E2E18
:101CA20083120313EB09EC09ED09EE09EB0A0319A0
:101CB200EC0A0319ED0A0319EE0A08008312031352
:101CC200A80028080319662E672E7B2EA31F6A2EF2
:101CD2006B2E7B2E2009AA002109AB002209AC0041
:101CE2002309AD00AA0A0319AB0A0319AC0A0319A6
:101CF200AD0A832E2308AD002208AC002108AB00F8
:101D02002008AA002308220421042004031D8A2E8D
:101D12008B2E942E0030A3000030A2000030A100D0
:101D22000030A000182F9630A900A42E0130FF0029
:101D32007F08A90701300310AD0CAC0CAB0CAA0C48
:101D4200FF3E031D9C2EFE302D05031DA92EAA2E3B
:101D5200972EC62E0130FF007F08A9070130AA077F
:101D6200003003180130AB07003003180130AC0714
:101D7200003003180130AD0701300310AD0CAC0C7C
:101D8200AB0CAA0CFF3E031DBE2EFF302D05031D1A
:101D9200CB2ECC2EAB2ED82E0130A9020130A400BE
:101DA2000310AA0DAB0DAC0DAD0DA40BD12EAC1BC7
:101DB200DB2EDC2EE22E023029020318E12EE22E67
:101DC200CD2E2918E52EE62EEE2EFF30AA05FF3085
:101DD200AB057F30AC05FF30AD050310A90C290817
:101DE200A400A501A601A70118300310A40DA50D9A
:101DF200A60DA70DFF3E031DF62E2408AA042508F2
:101E0200AB042608AC042708AD04280803190A2FDE
:101E12000B2F102FA31F0E2F0F2F102FAD172D08D2
:101E2200A3002C08A2002B08A1002A08A000080089
:101E32004B3083120313B8001830B7009630B60047
:101E42008030B50083160313290883120313BC00E4
:101E520083160313280883120313BB00831603138C
:101E6200270883120313BA0083160313260883126A
:101E72000313B9008A11C3258A1583120313380884
:101E820083160313AD00831203133708831603135B
:101E9200AC0083120313360883160313AB008312BC
:101EA2000313350883160313AA00BF3083120313EA
:101EB200D2008030D1000030D0000030CF003F305F
:101EC200A3008030A2000030A1000030A0008316E1
:101ED20003132D0883120313A700831603132C0880
:101EE20083120313A600831603132B088312031312
:101EF200A500831603132A0883120313A4008A1170
:101F020038208A15831203132308B8002208B70069
:101F12002108B6002008B5004A30BC007430BB006E
:101F22002430BA000030B9008A11C3258A15831201
:101F320003133808D6003708D5003608D400350810
:101F4200D3008A116B238A15831203135208831656
:101F52000313B10083120313510883160313B00055
:101F620083120313500883160313AF008312031363
:101F72004F0883160313AE00473083120313EA009F
:101F82007F30E900FF30E8000030E70083160313DA
:101F9200310883120313E6008316031330088312F9
:101FA2000313E500831603132F0883120313E400BF
:101FB200831603132E0883120313E3008A158A2261
:101FC2008A15831203136608EE006508ED006408A3
:101FD200EC006308EB008A15C5258A1583120313EA
:101FE2006C0883160313B300831203136B08831662
:0E1FF2000313B2003308A7003208A60008004F
:02400E00FC3F75
:00000001FF
