:040000008A110F282A
:10000800FE00030E83120313BC000A08BD007F081C
:10001800BE008A118D298A111128FD01831203134C
:10002800BF01C001C101C201C301C401C501C601AC
:10003800C701C801C901CA0183018A11E8298312CD
:100048000313A800280803192A282B283F28A31FD0
:100058002E282F283F282009AA002109AB002209B1
:10006800AC002309AD00AA0A0319AB0A0319AC0AAC
:100078000319AD0A47282308AD002208AC0021085F
:10008800AB002008AA002308220421042004031D31
:100098004E284F2858280030A3000030A200003016
:1000A800A1000030A000DC289630A90068280130A3
:1000B800FF007F08A90701300310AD0CAC0CAB0C96
:1000C800AA0CFF3E031D6028FE302D05031D6D2878
:1000D8006E285B288A280130FF007F08A9070130B5
:1000E800AA07003003180130AB07003003180130AD
:1000F800AC07003003180130AD0701300310AD0C18
:10010800AC0CAB0CAA0CFF3E031D8228FF302D055A
:10011800031D8F2890286F289C280130A9020130E0
:10012800A4000310AA0DAB0DAC0DAD0DA40B9528C2
:10013800AC1B9F28A028A628023029020318A5284E
:10014800A62891282918A928AA28B228FF30AA0584
:10015800FF30AB057F30AC05FF30AD050310A90CAF
:100168002908A400A501A601A70118300310A40DB1
:10017800A50DA60DA70DFF3E031DBA282408AA0445
:100188002508AB042608AC042708AD042808031981
:10019800CE28CF28D428A31FD228D328D428AD17F7
:1001A8002D08A3002C08A2002B08A1002A08A000F3
:1001B8000800831203131E08BB00831603131E08CE
:1001C80083120313BA00DC30F2000030F3003B085E
:1001D800F1003A08F0008A1168218A117108F900C3
:1001E8007008F8000B30F6000030F7008A1124215F
:1001F8008A11760883120313B2007708B300B4019A
:10020800B5013508A3003408A2003308A10032085C
:10021800A00000308A1123208A11831203132308B7
:10022800B9002208B8002108B7002008B60039082C
:10023800B1003808B0003708AF003608AE00080033
:10024800FA01FB017608770403192B292C29632965
:10025800FC01FC0A3A2901300310F60DF70DFF3EA8
:10026800031D30290130FF007F08FC07F71F3D29D7
:100278003E292F2901300310FA0DFB0DFF3E031D07
:100288003F2977087902031D4B2976087802031C59
:100298004E294F2956297608F8027708031CF903D6
:1002A800F9027A1401300310F70CF60CFF3E031D17
:1002B80057290130FC02031D622963293E297B0866
:1002C800F7007A08F6000800F401F501701C6D29A2
:1002D8006E2974297208F4070318F50A7308F507DC
:1002E80001300310F20DF30DFF3E031D7529013097
:1002F8000310F10CF00CFF3E031D7C2970087104FB
:10030800031D872988296A297508F1007408F000F7
:1003180008008A11BF218A117008710403199529F0
:1003280096299F298A11F1218A118A11DD208A11C3
:100338008A11FC218A11831203133E08FF003D082D
:100348008A003C0E8300FE0E7E0E090083160313FE
:100358000C17831203130C130B171F141F179F1767
:100368001F08C3392C389F00831603131F088F39C1
:1003780050389F000800F401831203131F1CC5297D
:10038800C629CC290C1FC929CA29CC29F401F40A89
:100398007408F200F3017208F0007308F100080015
:1003A8008A11DE218A118A11AA218A118A11F8215B
:1003B8008A110800831203179F15831603138616E4
:1003C80083120317961608008A1100228A118A11CF
:1003D800D4218A11EE298A110F28831603130C17CA
:1003E800831203130C130800831203139F140800CD
:0C03F800831203139F1408008B170800E9
:02400E00FC3F75
:00000001FF
